{
  "_format": "hh-sol-artifact-1",
  "contractName": "CrazzzyMonsters",
  "sourceName": "contracts/CrazzzyMonsters.sol",
  "abi": [
    {
      "inputs": [],
      "stateMutability": "nonpayable",
      "type": "constructor"
    },
    {
      "anonymous": false,
      "inputs": [
        {
          "indexed": true,
          "internalType": "address",
          "name": "owner",
          "type": "address"
        },
        {
          "indexed": true,
          "internalType": "address",
          "name": "approved",
          "type": "address"
        },
        {
          "indexed": true,
          "internalType": "uint256",
          "name": "tokenId",
          "type": "uint256"
        }
      ],
      "name": "Approval",
      "type": "event"
    },
    {
      "anonymous": false,
      "inputs": [
        {
          "indexed": true,
          "internalType": "address",
          "name": "owner",
          "type": "address"
        },
        {
          "indexed": true,
          "internalType": "address",
          "name": "operator",
          "type": "address"
        },
        {
          "indexed": false,
          "internalType": "bool",
          "name": "approved",
          "type": "bool"
        }
      ],
      "name": "ApprovalForAll",
      "type": "event"
    },
    {
      "anonymous": false,
      "inputs": [
        {
          "indexed": true,
          "internalType": "address",
          "name": "previousOwner",
          "type": "address"
        },
        {
          "indexed": true,
          "internalType": "address",
          "name": "newOwner",
          "type": "address"
        }
      ],
      "name": "OwnershipTransferred",
      "type": "event"
    },
    {
      "anonymous": false,
      "inputs": [
        {
          "indexed": true,
          "internalType": "address",
          "name": "from",
          "type": "address"
        },
        {
          "indexed": true,
          "internalType": "address",
          "name": "to",
          "type": "address"
        },
        {
          "indexed": true,
          "internalType": "uint256",
          "name": "tokenId",
          "type": "uint256"
        }
      ],
      "name": "Transfer",
      "type": "event"
    },
    {
      "inputs": [
        {
          "internalType": "address[]",
          "name": "_holders",
          "type": "address[]"
        },
        {
          "internalType": "uint256[]",
          "name": "_counts",
          "type": "uint256[]"
        }
      ],
      "name": "airdropNFTs",
      "outputs": [],
      "stateMutability": "nonpayable",
      "type": "function"
    },
    {
      "inputs": [
        {
          "internalType": "address",
          "name": "to",
          "type": "address"
        },
        {
          "internalType": "uint256",
          "name": "tokenId",
          "type": "uint256"
        }
      ],
      "name": "approve",
      "outputs": [],
      "stateMutability": "nonpayable",
      "type": "function"
    },
    {
      "inputs": [
        {
          "internalType": "address",
          "name": "owner",
          "type": "address"
        }
      ],
      "name": "balanceOf",
      "outputs": [
        {
          "internalType": "uint256",
          "name": "",
          "type": "uint256"
        }
      ],
      "stateMutability": "view",
      "type": "function"
    },
    {
      "inputs": [],
      "name": "baseExtension",
      "outputs": [
        {
          "internalType": "string",
          "name": "",
          "type": "string"
        }
      ],
      "stateMutability": "view",
      "type": "function"
    },
    {
      "inputs": [
        {
          "internalType": "uint256",
          "name": "tokenId",
          "type": "uint256"
        }
      ],
      "name": "burn",
      "outputs": [],
      "stateMutability": "nonpayable",
      "type": "function"
    },
    {
      "inputs": [],
      "name": "burnContract",
      "outputs": [
        {
          "internalType": "address",
          "name": "",
          "type": "address"
        }
      ],
      "stateMutability": "view",
      "type": "function"
    },
    {
      "inputs": [],
      "name": "cost",
      "outputs": [
        {
          "internalType": "uint256",
          "name": "",
          "type": "uint256"
        }
      ],
      "stateMutability": "view",
      "type": "function"
    },
    {
      "inputs": [],
      "name": "crmaxFee",
      "outputs": [
        {
          "internalType": "uint256",
          "name": "",
          "type": "uint256"
        }
      ],
      "stateMutability": "view",
      "type": "function"
    },
    {
      "inputs": [],
      "name": "crmaxWallet",
      "outputs": [
        {
          "internalType": "address",
          "name": "",
          "type": "address"
        }
      ],
      "stateMutability": "view",
      "type": "function"
    },
    {
      "inputs": [
        {
          "internalType": "uint256",
          "name": "tokenId",
          "type": "uint256"
        }
      ],
      "name": "getApproved",
      "outputs": [
        {
          "internalType": "address",
          "name": "",
          "type": "address"
        }
      ],
      "stateMutability": "view",
      "type": "function"
    },
    {
      "inputs": [],
      "name": "getMintInfo",
      "outputs": [
        {
          "components": [
            {
              "internalType": "bool",
              "name": "paused",
              "type": "bool"
            },
            {
              "internalType": "uint256",
              "name": "supply",
              "type": "uint256"
            },
            {
              "internalType": "uint256",
              "name": "publicTimestamp",
              "type": "uint256"
            }
          ],
          "internalType": "struct CrazzzyMonsters.MintInfo",
          "name": "",
          "type": "tuple"
        }
      ],
      "stateMutability": "view",
      "type": "function"
    },
    {
      "inputs": [
        {
          "internalType": "address",
          "name": "owner",
          "type": "address"
        },
        {
          "internalType": "address",
          "name": "operator",
          "type": "address"
        }
      ],
      "name": "isApprovedForAll",
      "outputs": [
        {
          "internalType": "bool",
          "name": "",
          "type": "bool"
        }
      ],
      "stateMutability": "view",
      "type": "function"
    },
    {
      "inputs": [],
      "name": "maxSupply",
      "outputs": [
        {
          "internalType": "uint256",
          "name": "",
          "type": "uint256"
        }
      ],
      "stateMutability": "view",
      "type": "function"
    },
    {
      "inputs": [
        {
          "internalType": "uint256",
          "name": "amount",
          "type": "uint256"
        }
      ],
      "name": "mint",
      "outputs": [],
      "stateMutability": "payable",
      "type": "function"
    },
    {
      "inputs": [
        {
          "internalType": "address",
          "name": "_minter",
          "type": "address"
        }
      ],
      "name": "mintCost",
      "outputs": [
        {
          "internalType": "uint256",
          "name": "",
          "type": "uint256"
        }
      ],
      "stateMutability": "view",
      "type": "function"
    },
    {
      "inputs": [],
      "name": "name",
      "outputs": [
        {
          "internalType": "string",
          "name": "",
          "type": "string"
        }
      ],
      "stateMutability": "view",
      "type": "function"
    },
    {
      "inputs": [],
      "name": "owner",
      "outputs": [
        {
          "internalType": "address",
          "name": "",
          "type": "address"
        }
      ],
      "stateMutability": "view",
      "type": "function"
    },
    {
      "inputs": [
        {
          "internalType": "uint256",
          "name": "tokenId",
          "type": "uint256"
        }
      ],
      "name": "ownerOf",
      "outputs": [
        {
          "internalType": "address",
          "name": "",
          "type": "address"
        }
      ],
      "stateMutability": "view",
      "type": "function"
    },
    {
      "inputs": [
        {
          "internalType": "bool",
          "name": "_state",
          "type": "bool"
        }
      ],
      "name": "pause",
      "outputs": [],
      "stateMutability": "nonpayable",
      "type": "function"
    },
    {
      "inputs": [],
      "name": "paused",
      "outputs": [
        {
          "internalType": "bool",
          "name": "",
          "type": "bool"
        }
      ],
      "stateMutability": "view",
      "type": "function"
    },
    {
      "inputs": [],
      "name": "publicTimestamp",
      "outputs": [
        {
          "internalType": "uint256",
          "name": "",
          "type": "uint256"
        }
      ],
      "stateMutability": "view",
      "type": "function"
    },
    {
      "inputs": [],
      "name": "renounceOwnership",
      "outputs": [],
      "stateMutability": "nonpayable",
      "type": "function"
    },
    {
      "inputs": [
        {
          "internalType": "uint256",
          "name": "_tokenId",
          "type": "uint256"
        },
        {
          "internalType": "uint256",
          "name": "_salePrice",
          "type": "uint256"
        }
      ],
      "name": "royaltyInfo",
      "outputs": [
        {
          "internalType": "address",
          "name": "",
          "type": "address"
        },
        {
          "internalType": "uint256",
          "name": "",
          "type": "uint256"
        }
      ],
      "stateMutability": "view",
      "type": "function"
    },
    {
      "inputs": [],
      "name": "royaltyWallet",
      "outputs": [
        {
          "internalType": "address",
          "name": "",
          "type": "address"
        }
      ],
      "stateMutability": "view",
      "type": "function"
    },
    {
      "inputs": [
        {
          "internalType": "address",
          "name": "from",
          "type": "address"
        },
        {
          "internalType": "address",
          "name": "to",
          "type": "address"
        },
        {
          "internalType": "uint256",
          "name": "tokenId",
          "type": "uint256"
        }
      ],
      "name": "safeTransferFrom",
      "outputs": [],
      "stateMutability": "nonpayable",
      "type": "function"
    },
    {
      "inputs": [
        {
          "internalType": "address",
          "name": "from",
          "type": "address"
        },
        {
          "internalType": "address",
          "name": "to",
          "type": "address"
        },
        {
          "internalType": "uint256",
          "name": "tokenId",
          "type": "uint256"
        },
        {
          "internalType": "bytes",
          "name": "data",
          "type": "bytes"
        }
      ],
      "name": "safeTransferFrom",
      "outputs": [],
      "stateMutability": "nonpayable",
      "type": "function"
    },
    {
      "inputs": [
        {
          "internalType": "address[]",
          "name": "_holders",
          "type": "address[]"
        },
        {
          "internalType": "uint256[]",
          "name": "_counts",
          "type": "uint256[]"
        }
      ],
      "name": "setAirDropCounts",
      "outputs": [],
      "stateMutability": "nonpayable",
      "type": "function"
    },
    {
      "inputs": [
        {
          "internalType": "address",
          "name": "operator",
          "type": "address"
        },
        {
          "internalType": "bool",
          "name": "approved",
          "type": "bool"
        }
      ],
      "name": "setApprovalForAll",
      "outputs": [],
      "stateMutability": "nonpayable",
      "type": "function"
    },
    {
      "inputs": [
        {
          "internalType": "string",
          "name": "_newBaseExtension",
          "type": "string"
        }
      ],
      "name": "setBaseExtension",
      "outputs": [],
      "stateMutability": "nonpayable",
      "type": "function"
    },
    {
      "inputs": [
        {
          "internalType": "string",
          "name": "_newBaseURI",
          "type": "string"
        }
      ],
      "name": "setBaseURI",
      "outputs": [],
      "stateMutability": "nonpayable",
      "type": "function"
    },
    {
      "inputs": [
        {
          "internalType": "address",
          "name": "newAddr",
          "type": "address"
        }
      ],
      "name": "setBurnContractAddress",
      "outputs": [],
      "stateMutability": "nonpayable",
      "type": "function"
    },
    {
      "inputs": [
        {
          "internalType": "uint256",
          "name": "_newCost",
          "type": "uint256"
        }
      ],
      "name": "setCost",
      "outputs": [],
      "stateMutability": "nonpayable",
      "type": "function"
    },
    {
      "inputs": [
        {
          "internalType": "address",
          "name": "receiver",
          "type": "address"
        },
        {
          "internalType": "uint96",
          "name": "feeNumerator",
          "type": "uint96"
        }
      ],
      "name": "setDefaultRoyalty",
      "outputs": [],
      "stateMutability": "nonpayable",
      "type": "function"
    },
    {
      "inputs": [
        {
          "internalType": "uint256",
          "name": "publicTimestamp_",
          "type": "uint256"
        }
      ],
      "name": "setPublicTimestamp",
      "outputs": [],
      "stateMutability": "nonpayable",
      "type": "function"
    },
    {
      "inputs": [
        {
          "internalType": "address[]",
          "name": "addresses",
          "type": "address[]"
        }
      ],
      "name": "setWhitelistAddresses",
      "outputs": [],
      "stateMutability": "nonpayable",
      "type": "function"
    },
    {
      "inputs": [
        {
          "internalType": "address",
          "name": "_address",
          "type": "address"
        },
        {
          "internalType": "bool",
          "name": "_whitelisted",
          "type": "bool"
        }
      ],
      "name": "setWhitelisted",
      "outputs": [],
      "stateMutability": "nonpayable",
      "type": "function"
    },
    {
      "inputs": [
        {
          "internalType": "uint256",
          "name": "_newCost",
          "type": "uint256"
        }
      ],
      "name": "setWlCost",
      "outputs": [],
      "stateMutability": "nonpayable",
      "type": "function"
    },
    {
      "inputs": [
        {
          "internalType": "bytes4",
          "name": "interfaceId",
          "type": "bytes4"
        }
      ],
      "name": "supportsInterface",
      "outputs": [
        {
          "internalType": "bool",
          "name": "",
          "type": "bool"
        }
      ],
      "stateMutability": "view",
      "type": "function"
    },
    {
      "inputs": [],
      "name": "symbol",
      "outputs": [
        {
          "internalType": "string",
          "name": "",
          "type": "string"
        }
      ],
      "stateMutability": "view",
      "type": "function"
    },
    {
      "inputs": [],
      "name": "teamFee",
      "outputs": [
        {
          "internalType": "uint256",
          "name": "",
          "type": "uint256"
        }
      ],
      "stateMutability": "view",
      "type": "function"
    },
    {
      "inputs": [],
      "name": "teamWallet",
      "outputs": [
        {
          "internalType": "address",
          "name": "",
          "type": "address"
        }
      ],
      "stateMutability": "view",
      "type": "function"
    },
    {
      "inputs": [
        {
          "internalType": "uint256",
          "name": "index",
          "type": "uint256"
        }
      ],
      "name": "tokenByIndex",
      "outputs": [
        {
          "internalType": "uint256",
          "name": "",
          "type": "uint256"
        }
      ],
      "stateMutability": "view",
      "type": "function"
    },
    {
      "inputs": [
        {
          "internalType": "address",
          "name": "owner",
          "type": "address"
        },
        {
          "internalType": "uint256",
          "name": "index",
          "type": "uint256"
        }
      ],
      "name": "tokenOfOwnerByIndex",
      "outputs": [
        {
          "internalType": "uint256",
          "name": "",
          "type": "uint256"
        }
      ],
      "stateMutability": "view",
      "type": "function"
    },
    {
      "inputs": [
        {
          "internalType": "uint256",
          "name": "tokenId",
          "type": "uint256"
        }
      ],
      "name": "tokenURI",
      "outputs": [
        {
          "internalType": "string",
          "name": "",
          "type": "string"
        }
      ],
      "stateMutability": "view",
      "type": "function"
    },
    {
      "inputs": [],
      "name": "totalSupply",
      "outputs": [
        {
          "internalType": "uint256",
          "name": "",
          "type": "uint256"
        }
      ],
      "stateMutability": "view",
      "type": "function"
    },
    {
      "inputs": [
        {
          "internalType": "address",
          "name": "from",
          "type": "address"
        },
        {
          "internalType": "address",
          "name": "to",
          "type": "address"
        },
        {
          "internalType": "uint256",
          "name": "tokenId",
          "type": "uint256"
        }
      ],
      "name": "transferFrom",
      "outputs": [],
      "stateMutability": "nonpayable",
      "type": "function"
    },
    {
      "inputs": [
        {
          "internalType": "address",
          "name": "newOwner",
          "type": "address"
        }
      ],
      "name": "transferOwnership",
      "outputs": [],
      "stateMutability": "nonpayable",
      "type": "function"
    },
    {
      "inputs": [
        {
          "internalType": "address",
          "name": "_owner",
          "type": "address"
        }
      ],
      "name": "walletOfOwner",
      "outputs": [
        {
          "internalType": "uint256[]",
          "name": "",
          "type": "uint256[]"
        }
      ],
      "stateMutability": "view",
      "type": "function"
    },
    {
      "inputs": [
        {
          "internalType": "address",
          "name": "",
          "type": "address"
        }
      ],
      "name": "whitelisted",
      "outputs": [
        {
          "internalType": "bool",
          "name": "",
          "type": "bool"
        }
      ],
      "stateMutability": "view",
      "type": "function"
    },
    {
      "inputs": [],
      "name": "withdraw",
      "outputs": [],
      "stateMutability": "nonpayable",
      "type": "function"
    },
    {
      "inputs": [],
      "name": "wlCost",
      "outputs": [
        {
          "internalType": "uint256",
          "name": "",
          "type": "uint256"
        }
      ],
      "stateMutability": "view",
      "type": "function"
    }
  ],
  "bytecode": "0x6080604052636436ffb0600e556040518060400160405280600581526020017f2e6a736f6e00000000000000000000000000000000000000000000000000000081525060109080519060200190620000599291906200060f565b50680340aad21b3b700000601155680270801d946c940000601255600061272360146101000a81548160ff0219169083151502179055507381a6147d6bd8b43f13704908d1fb30460980283d61272660006101000a81548173ffffffffffffffffffffffffffffffffffffffff021916908373ffffffffffffffffffffffffffffffffffffffff1602179055506103b66127275573d40d96b07e0f9fdfe66306f0975f6025e01a5ce561272860006101000a81548173ffffffffffffffffffffffffffffffffffffffff021916908373ffffffffffffffffffffffffffffffffffffffff160217905550603261272955739d2349c58861287358905e133f28c5f0a5b687e361272a60006101000a81548173ffffffffffffffffffffffffffffffffffffffff021916908373ffffffffffffffffffffffffffffffffffffffff160217905550348015620001ac57600080fd5b506040518060400160405280601081526020017f4372617a7a7a79204d6f6e7374657273000000000000000000000000000000008152506040518060400160405280600481526020017f434d4f47000000000000000000000000000000000000000000000000000000008152508160009080519060200190620002319291906200060f565b5080600190805190602001906200024a9291906200060f565b5050506200026d62000261620002b260201b60201c565b620002ba60201b60201c565b6001600d81905550620002ac61272a60009054906101000a900473ffffffffffffffffffffffffffffffffffffffff166103e86200038060201b60201c565b620008b1565b600033905090565b6000600c60009054906101000a900473ffffffffffffffffffffffffffffffffffffffff16905081600c60006101000a81548173ffffffffffffffffffffffffffffffffffffffff021916908373ffffffffffffffffffffffffffffffffffffffff1602179055508173ffffffffffffffffffffffffffffffffffffffff168173ffffffffffffffffffffffffffffffffffffffff167f8be0079c531659141344cd1fd0a4f28419497f9722a3daafe3b4186f6b6457e060405160405180910390a35050565b62000390620003a660201b60201c565b620003a282826200043760201b60201c565b5050565b620003b6620002b260201b60201c565b73ffffffffffffffffffffffffffffffffffffffff16620003dc620005db60201b60201c565b73ffffffffffffffffffffffffffffffffffffffff161462000435576040517f08c379a00000000000000000000000000000000000000000000000000000000081526004016200042c9062000734565b60405180910390fd5b565b620004476200060560201b60201c565b6bffffffffffffffffffffffff16816bffffffffffffffffffffffff161115620004a8576040517f08c379a00000000000000000000000000000000000000000000000000000000081526004016200049f9062000756565b60405180910390fd5b600073ffffffffffffffffffffffffffffffffffffffff168273ffffffffffffffffffffffffffffffffffffffff1614156200051b576040517f08c379a0000000000000000000000000000000000000000000000000000000008152600401620005129062000778565b60405180910390fd5b60405180604001604052808373ffffffffffffffffffffffffffffffffffffffff168152602001826bffffffffffffffffffffffff16815250600a60008201518160000160006101000a81548173ffffffffffffffffffffffffffffffffffffffff021916908373ffffffffffffffffffffffffffffffffffffffff16021790555060208201518160000160146101000a8154816bffffffffffffffffffffffff02191690836bffffffffffffffffffffffff1602179055509050505050565b6000600c60009054906101000a900473ffffffffffffffffffffffffffffffffffffffff16905090565b6000612710905090565b8280546200061d90620007ab565b90600052602060002090601f0160209004810192826200064157600085556200068d565b82601f106200065c57805160ff19168380011785556200068d565b828001600101855582156200068d579182015b828111156200068c5782518255916020019190600101906200066f565b5b5090506200069c9190620006a0565b5090565b5b80821115620006bb576000816000905550600101620006a1565b5090565b6000620006ce6020836200079a565b9150620006db8262000810565b602082019050919050565b6000620006f5602a836200079a565b9150620007028262000839565b604082019050919050565b60006200071c6019836200079a565b9150620007298262000888565b602082019050919050565b600060208201905081810360008301526200074f81620006bf565b9050919050565b600060208201905081810360008301526200077181620006e6565b9050919050565b6000602082019050818103600083015262000793816200070d565b9050919050565b600082825260208201905092915050565b60006002820490506001821680620007c457607f821691505b60208210811415620007db57620007da620007e1565b5b50919050565b7f4e487b7100000000000000000000000000000000000000000000000000000000600052602260045260246000fd5b7f4f776e61626c653a2063616c6c6572206973206e6f7420746865206f776e6572600082015250565b7f455243323938313a20726f79616c7479206665652077696c6c2065786365656460008201527f2073616c65507269636500000000000000000000000000000000000000000000602082015250565b7f455243323938313a20696e76616c696420726563656976657200000000000000600082015250565b615df780620008c16000396000f3fe6080604052600436106102e45760003560e01c80635c975abb11610190578063c6682862116100dc578063d936547e11610095578063e985e9c51161006f578063e985e9c514610b3e578063f12f6d5d14610b7b578063f2fde38b14610ba4578063f52ccc2d14610bcd576102e4565b8063d936547e14610aaf578063da3ef23f14610aec578063e213b5f614610b15576102e4565b8063c66828621461099b578063c87b56dd146109c6578063d0520c2314610a03578063d5abeb0114610a2e578063d70a28d114610a59578063d7c94efd14610a84576102e4565b80639281aa0b11610149578063a22cb46511610123578063a22cb465146108f5578063b88d4fde1461091e578063be3aa33714610947578063c37f738114610972576102e4565b80639281aa0b1461088557806395d89b41146108ae578063a0712d68146108d9576102e4565b80635c975abb146107755780636352211e146107a057806370a08231146107dd578063715018a61461081a57806381cdf766146108315780638da5cb5b1461085a576102e4565b80632acc659e1161024f57806342842e0e1161020857806344a0d68a116101e257806344a0d68a146106bb5780634f6ccce7146106e457806355f804b314610721578063599270441461074a576102e4565b806342842e0e1461062c57806342966c6814610655578063438b63001461067e576102e4565b80632acc659e1461051c5780632d35b795146105595780632f745c59146105825780633a1e87f5146105bf5780633ccfd60b146105ea5780633f0d2ec114610601576102e4565b806313faede6116102a157806313faede61461040957806318160ddd146104345780631c0973a41461045f5780631e6d487a1461048a57806323b872dd146104b55780632a55205a146104de576102e4565b806301ffc9a7146102e957806302329a291461032657806304634d8d1461034f57806306fdde0314610378578063081812fc146103a3578063095ea7b3146103e0575b600080fd5b3480156102f557600080fd5b50610310600480360381019061030b919061458f565b610bf6565b60405161031d9190614df4565b60405180910390f35b34801561033257600080fd5b5061034d60048036038101906103489190614566565b610c08565b005b34801561035b57600080fd5b506103766004803603810190610371919061447d565b610c2e565b005b34801561038457600080fd5b5061038d610c44565b60405161039a9190614e0f565b60405180910390f35b3480156103af57600080fd5b506103ca60048036038101906103c59190614622565b610cd6565b6040516103d79190614d42565b60405180910390f35b3480156103ec57600080fd5b5061040760048036038101906104029190614441565b610d1c565b005b34801561041557600080fd5b5061041e610e34565b60405161042b91906151ac565b60405180910390f35b34801561044057600080fd5b50610449610e3a565b60405161045691906151ac565b60405180910390f35b34801561046b57600080fd5b50610474610e47565b6040516104819190614d42565b60405180910390f35b34801561049657600080fd5b5061049f610e6e565b6040516104ac91906151ac565b60405180910390f35b3480156104c157600080fd5b506104dc60048036038101906104d7919061433b565b610e74565b005b3480156104ea57600080fd5b506105056004803603810190610500919061464b565b610ed4565b604051610513929190614da9565b60405180910390f35b34801561052857600080fd5b50610543600480360381019061053e91906142d6565b6110bf565b60405161055091906151ac565b60405180910390f35b34801561056557600080fd5b50610580600480360381019061057b91906144fa565b611129565b005b34801561058e57600080fd5b506105a960048036038101906105a49190614441565b6112a7565b6040516105b691906151ac565b60405180910390f35b3480156105cb57600080fd5b506105d461134c565b6040516105e19190614d42565b60405180910390f35b3480156105f657600080fd5b506105ff611373565b005b34801561060d57600080fd5b5061061661155c565b6040516106239190614d42565b60405180910390f35b34801561063857600080fd5b50610653600480360381019061064e919061433b565b611583565b005b34801561066157600080fd5b5061067c60048036038101906106779190614622565b6115a3565b005b34801561068a57600080fd5b506106a560048036038101906106a091906142d6565b611640565b6040516106b29190614dd2565b60405180910390f35b3480156106c757600080fd5b506106e260048036038101906106dd9190614622565b61173a565b005b3480156106f057600080fd5b5061070b60048036038101906107069190614622565b61174c565b60405161071891906151ac565b60405180910390f35b34801561072d57600080fd5b50610748600480360381019061074391906145e1565b6117e3565b005b34801561075657600080fd5b5061075f611805565b60405161076c9190614d42565b60405180910390f35b34801561078157600080fd5b5061078a61182c565b6040516107979190614df4565b60405180910390f35b3480156107ac57600080fd5b506107c760048036038101906107c29190614622565b611840565b6040516107d49190614d42565b60405180910390f35b3480156107e957600080fd5b5061080460048036038101906107ff91906142d6565b6118c7565b60405161081191906151ac565b60405180910390f35b34801561082657600080fd5b5061082f61197f565b005b34801561083d57600080fd5b50610858600480360381019061085391906142d6565b611993565b005b34801561086657600080fd5b5061086f6119e0565b60405161087c9190614d42565b60405180910390f35b34801561089157600080fd5b506108ac60048036038101906108a79190614405565b611a0a565b005b3480156108ba57600080fd5b506108c3611a6e565b6040516108d09190614e0f565b60405180910390f35b6108f360048036038101906108ee9190614622565b611b00565b005b34801561090157600080fd5b5061091c60048036038101906109179190614405565b611d24565b005b34801561092a57600080fd5b506109456004803603810190610940919061438a565b611d3a565b005b34801561095357600080fd5b5061095c611d9c565b60405161096991906151ac565b60405180910390f35b34801561097e57600080fd5b5061099960048036038101906109949190614622565b611da3565b005b3480156109a757600080fd5b506109b0611db5565b6040516109bd9190614e0f565b60405180910390f35b3480156109d257600080fd5b506109ed60048036038101906109e89190614622565b611e43565b6040516109fa9190614e0f565b60405180910390f35b348015610a0f57600080fd5b50610a18611eed565b604051610a259190615191565b60405180910390f35b348015610a3a57600080fd5b50610a43611f30565b604051610a5091906151ac565b60405180910390f35b348015610a6557600080fd5b50610a6e611f36565b604051610a7b91906151ac565b60405180910390f35b348015610a9057600080fd5b50610a99611f3c565b604051610aa691906151ac565b60405180910390f35b348015610abb57600080fd5b50610ad66004803603810190610ad191906142d6565b611f43565b604051610ae39190614df4565b60405180910390f35b348015610af857600080fd5b50610b136004803603810190610b0e91906145e1565b611f64565b005b348015610b2157600080fd5b50610b3c6004803603810190610b3791906144fa565b611f86565b005b348015610b4a57600080fd5b50610b656004803603810190610b6091906142ff565b61210d565b604051610b729190614df4565b60405180910390f35b348015610b8757600080fd5b50610ba26004803603810190610b9d9190614622565b6121a1565b005b348015610bb057600080fd5b50610bcb6004803603810190610bc691906142d6565b6121b3565b005b348015610bd957600080fd5b50610bf46004803603810190610bef91906144b9565b612237565b005b6000610c01826122fb565b9050919050565b610c10612375565b8061272360146101000a81548160ff02191690831515021790555050565b610c36612375565b610c4082826123f3565b5050565b606060008054610c5390615525565b80601f0160208091040260200160405190810160405280929190818152602001828054610c7f90615525565b8015610ccc5780601f10610ca157610100808354040283529160200191610ccc565b820191906000526020600020905b815481529060010190602001808311610caf57829003601f168201915b5050505050905090565b6000610ce182612589565b6004600083815260200190815260200160002060009054906101000a900473ffffffffffffffffffffffffffffffffffffffff169050919050565b6000610d2782611840565b90508073ffffffffffffffffffffffffffffffffffffffff168373ffffffffffffffffffffffffffffffffffffffff161415610d98576040517f08c379a0000000000000000000000000000000000000000000000000000000008152600401610d8f90615071565b60405180910390fd5b8073ffffffffffffffffffffffffffffffffffffffff16610db76125d4565b73ffffffffffffffffffffffffffffffffffffffff161480610de65750610de581610de06125d4565b61210d565b5b610e25576040517f08c379a0000000000000000000000000000000000000000000000000000000008152600401610e1c906150d1565b60405180910390fd5b610e2f83836125dc565b505050565b60115481565b6000600880549050905090565b61272360009054906101000a900473ffffffffffffffffffffffffffffffffffffffff1681565b600e5481565b610e85610e7f6125d4565b82612695565b610ec4576040517f08c379a0000000000000000000000000000000000000000000000000000000008152600401610ebb90614e91565b60405180910390fd5b610ecf83838361272a565b505050565b6000806000600b60008681526020019081526020016000206040518060400160405290816000820160009054906101000a900473ffffffffffffffffffffffffffffffffffffffff1673ffffffffffffffffffffffffffffffffffffffff1673ffffffffffffffffffffffffffffffffffffffff1681526020016000820160149054906101000a90046bffffffffffffffffffffffff166bffffffffffffffffffffffff166bffffffffffffffffffffffff16815250509050600073ffffffffffffffffffffffffffffffffffffffff16816000015173ffffffffffffffffffffffffffffffffffffffff16141561106a57600a6040518060400160405290816000820160009054906101000a900473ffffffffffffffffffffffffffffffffffffffff1673ffffffffffffffffffffffffffffffffffffffff1673ffffffffffffffffffffffffffffffffffffffff1681526020016000820160149054906101000a90046bffffffffffffffffffffffff166bffffffffffffffffffffffff166bffffffffffffffffffffffff168152505090505b6000611074612a24565b6bffffffffffffffffffffffff1682602001516bffffffffffffffffffffffff16866110a091906153c9565b6110aa9190615398565b90508160000151819350935050509250929050565b600061272b60008373ffffffffffffffffffffffffffffffffffffffff1673ffffffffffffffffffffffffffffffffffffffff16815260200190815260200160002060009054906101000a900460ff161561111e576012549050611124565b60115490505b919050565b611131612375565b8051825114611175576040517f08c379a000000000000000000000000000000000000000000000000000000000815260040161116c90614fb1565b60405180910390fd5b60005b82518110156112a2576127248382815181106111bd577f4e487b7100000000000000000000000000000000000000000000000000000000600052603260045260246000fd5b60200260200101519080600181540180825580915050600190039060005260206000200160009091909190916101000a81548173ffffffffffffffffffffffffffffffffffffffff021916908373ffffffffffffffffffffffffffffffffffffffff160217905550612725828281518110611261577f4e487b7100000000000000000000000000000000000000000000000000000000600052603260045260246000fd5b60200260200101519080600181540180825580915050600190039060005260206000200160009091909190915055808061129a90615588565b915050611178565b505050565b60006112b2836118c7565b82106112f3576040517f08c379a00000000000000000000000000000000000000000000000000000000081526004016112ea90614eb1565b60405180910390fd5b600660008473ffffffffffffffffffffffffffffffffffffffff1673ffffffffffffffffffffffffffffffffffffffff168152602001908152602001600020600083815260200190815260200160002054905092915050565b61272860009054906101000a900473ffffffffffffffffffffffffffffffffffffffff1681565b600047905060006103e8612727548361138c91906153c9565b6113969190615398565b905060006103e861272954846113ac91906153c9565b6113b69190615398565b9050600061272660009054906101000a900473ffffffffffffffffffffffffffffffffffffffff1673ffffffffffffffffffffffffffffffffffffffff168360405161140190614d2d565b60006040518083038185875af1925050503d806000811461143e576040519150601f19603f3d011682016040523d82523d6000602084013e611443565b606091505b5050905080611487576040517f08c379a000000000000000000000000000000000000000000000000000000000815260040161147e90614f51565b60405180910390fd5b61272860009054906101000a900473ffffffffffffffffffffffffffffffffffffffff1673ffffffffffffffffffffffffffffffffffffffff16826040516114ce90614d2d565b60006040518083038185875af1925050503d806000811461150b576040519150601f19603f3d011682016040523d82523d6000602084013e611510565b606091505b50508091505080611556576040517f08c379a000000000000000000000000000000000000000000000000000000000815260040161154d90614f51565b60405180910390fd5b50505050565b61272a60009054906101000a900473ffffffffffffffffffffffffffffffffffffffff1681565b61159e83838360405180602001604052806000815250611d3a565b505050565b61272360009054906101000a900473ffffffffffffffffffffffffffffffffffffffff1673ffffffffffffffffffffffffffffffffffffffff163373ffffffffffffffffffffffffffffffffffffffff1614611634576040517f08c379a000000000000000000000000000000000000000000000000000000000815260040161162b90615091565b60405180910390fd5b61163d81612a2e565b50565b6060600061164d836118c7565b905060008167ffffffffffffffff811115611691577f4e487b7100000000000000000000000000000000000000000000000000000000600052604160045260246000fd5b6040519080825280602002602001820160405280156116bf5781602001602082028036833780820191505090505b50905060005b8281101561172f576116d785826112a7565b828281518110611710577f4e487b7100000000000000000000000000000000000000000000000000000000600052603260045260246000fd5b602002602001018181525050808061172790615588565b9150506116c5565b508092505050919050565b611742612375565b8060118190555050565b6000611756610e3a565b8210611797576040517f08c379a000000000000000000000000000000000000000000000000000000000815260040161178e906150f1565b60405180910390fd5b600882815481106117d1577f4e487b7100000000000000000000000000000000000000000000000000000000600052603260045260246000fd5b90600052602060002001549050919050565b6117eb612375565b80600f9080519060200190611801929190613f96565b5050565b61272660009054906101000a900473ffffffffffffffffffffffffffffffffffffffff1681565b61272360149054906101000a900460ff1681565b60008061184c83612b7c565b9050600073ffffffffffffffffffffffffffffffffffffffff168173ffffffffffffffffffffffffffffffffffffffff1614156118be576040517f08c379a00000000000000000000000000000000000000000000000000000000081526004016118b590615051565b60405180910390fd5b80915050919050565b60008073ffffffffffffffffffffffffffffffffffffffff168273ffffffffffffffffffffffffffffffffffffffff161415611938576040517f08c379a000000000000000000000000000000000000000000000000000000000815260040161192f90614fd1565b60405180910390fd5b600360008373ffffffffffffffffffffffffffffffffffffffff1673ffffffffffffffffffffffffffffffffffffffff168152602001908152602001600020549050919050565b611987612375565b6119916000612bb9565b565b61199b612375565b8061272360006101000a81548173ffffffffffffffffffffffffffffffffffffffff021916908373ffffffffffffffffffffffffffffffffffffffff16021790555050565b6000600c60009054906101000a900473ffffffffffffffffffffffffffffffffffffffff16905090565b611a12612375565b8061272b60008473ffffffffffffffffffffffffffffffffffffffff1673ffffffffffffffffffffffffffffffffffffffff16815260200190815260200160002060006101000a81548160ff0219169083151502179055505050565b606060018054611a7d90615525565b80601f0160208091040260200160405190810160405280929190818152602001828054611aa990615525565b8015611af65780601f10611acb57610100808354040283529160200191611af6565b820191906000526020600020905b815481529060010190602001808311611ad957829003601f168201915b5050505050905090565b61272360149054906101000a900460ff1615611b51576040517f08c379a0000000000000000000000000000000000000000000000000000000008152600401611b4890615151565b60405180910390fd5b600e54421015611b96576040517f08c379a0000000000000000000000000000000000000000000000000000000008152600401611b8d90614e71565b60405180910390fd5b60008111611bd9576040517f08c379a0000000000000000000000000000000000000000000000000000000008152600401611bd090614e51565b60405180910390fd5b6000611be3610e3a565b90506127108282611bf49190615342565b1115611c35576040517f08c379a0000000000000000000000000000000000000000000000000000000008152600401611c2c90614e31565b60405180910390fd5b6000601154905061272b60003373ffffffffffffffffffffffffffffffffffffffff1673ffffffffffffffffffffffffffffffffffffffff16815260200190815260200160002060009054906101000a900460ff1615611c955760125490505b8281611ca191906153c9565b341015611ce3576040517f08c379a0000000000000000000000000000000000000000000000000000000008152600401611cda906150b1565b60405180910390fd5b60005b83811015611d1e57611d0b33611d068386611d019190615342565b612c7f565b612ea4565b8080611d1690615588565b915050611ce6565b50505050565b611d36611d2f6125d4565b8383612ec2565b5050565b611d4b611d456125d4565b83612695565b611d8a576040517f08c379a0000000000000000000000000000000000000000000000000000000008152600401611d8190614e91565b60405180910390fd5b611d968484848461302f565b50505050565b6127295481565b611dab612375565b80600e8190555050565b60108054611dc290615525565b80601f0160208091040260200160405190810160405280929190818152602001828054611dee90615525565b8015611e3b5780601f10611e1057610100808354040283529160200191611e3b565b820191906000526020600020905b815481529060010190602001808311611e1e57829003601f168201915b505050505081565b6060611e4e8261308b565b611e8d576040517f08c379a0000000000000000000000000000000000000000000000000000000008152600401611e8490615031565b60405180910390fd5b6000611e976130cc565b90506000815111611eb75760405180602001604052806000815250611ee5565b80611ec18461315e565b6010604051602001611ed593929190614cfc565b6040516020818303038152906040525b915050919050565b611ef561401c565b604051806060016040528061272360149054906101000a900460ff1615158152602001611f20610e3a565b8152602001600e54815250905090565b61271081565b60125481565b6127275481565b61272b6020528060005260406000206000915054906101000a900460ff1681565b611f6c612375565b8060109080519060200190611f82929190613f96565b5050565b611f8e612375565b8051825114611fd2576040517f08c379a0000000000000000000000000000000000000000000000000000000008152600401611fc990614fb1565b60405180910390fd5b6000611fdc610e3a565b905060005b83518110156121075760005b838281518110612026577f4e487b7100000000000000000000000000000000000000000000000000000000600052603260045260246000fd5b60200260200101518110156120a557612092858381518110612071577f4e487b7100000000000000000000000000000000000000000000000000000000600052603260045260246000fd5b602002602001015161208d83866120889190615342565b612c7f565b612ea4565b808061209d90615588565b915050611fed565b508281815181106120df577f4e487b7100000000000000000000000000000000000000000000000000000000600052603260045260246000fd5b6020026020010151826120f29190615342565b915080806120ff90615588565b915050611fe1565b50505050565b6000600560008473ffffffffffffffffffffffffffffffffffffffff1673ffffffffffffffffffffffffffffffffffffffff16815260200190815260200160002060008373ffffffffffffffffffffffffffffffffffffffff1673ffffffffffffffffffffffffffffffffffffffff16815260200190815260200160002060009054906101000a900460ff16905092915050565b6121a9612375565b8060128190555050565b6121bb612375565b600073ffffffffffffffffffffffffffffffffffffffff168173ffffffffffffffffffffffffffffffffffffffff16141561222b576040517f08c379a000000000000000000000000000000000000000000000000000000000815260040161222290614ef1565b60405180910390fd5b61223481612bb9565b50565b61223f612375565b60005b81518110156122f757600161272b600084848151811061228b577f4e487b7100000000000000000000000000000000000000000000000000000000600052603260045260246000fd5b602002602001015173ffffffffffffffffffffffffffffffffffffffff1673ffffffffffffffffffffffffffffffffffffffff16815260200190815260200160002060006101000a81548160ff02191690831515021790555080806122ef90615588565b915050612242565b5050565b60007f2a55205a000000000000000000000000000000000000000000000000000000007bffffffffffffffffffffffffffffffffffffffffffffffffffffffff1916827bffffffffffffffffffffffffffffffffffffffffffffffffffffffff1916148061236e575061236d82613282565b5b9050919050565b61237d6125d4565b73ffffffffffffffffffffffffffffffffffffffff1661239b6119e0565b73ffffffffffffffffffffffffffffffffffffffff16146123f1576040517f08c379a00000000000000000000000000000000000000000000000000000000081526004016123e890615011565b60405180910390fd5b565b6123fb612a24565b6bffffffffffffffffffffffff16816bffffffffffffffffffffffff161115612459576040517f08c379a000000000000000000000000000000000000000000000000000000000815260040161245090615131565b60405180910390fd5b600073ffffffffffffffffffffffffffffffffffffffff168273ffffffffffffffffffffffffffffffffffffffff1614156124c9576040517f08c379a00000000000000000000000000000000000000000000000000000000081526004016124c090615171565b60405180910390fd5b60405180604001604052808373ffffffffffffffffffffffffffffffffffffffff168152602001826bffffffffffffffffffffffff16815250600a60008201518160000160006101000a81548173ffffffffffffffffffffffffffffffffffffffff021916908373ffffffffffffffffffffffffffffffffffffffff16021790555060208201518160000160146101000a8154816bffffffffffffffffffffffff02191690836bffffffffffffffffffffffff1602179055509050505050565b6125928161308b565b6125d1576040517f08c379a00000000000000000000000000000000000000000000000000000000081526004016125c890615051565b60405180910390fd5b50565b600033905090565b816004600083815260200190815260200160002060006101000a81548173ffffffffffffffffffffffffffffffffffffffff021916908373ffffffffffffffffffffffffffffffffffffffff160217905550808273ffffffffffffffffffffffffffffffffffffffff1661264f83611840565b73ffffffffffffffffffffffffffffffffffffffff167f8c5be1e5ebec7d5bd14f71427d1e84f3dd0314c0f7b2291e5b200ac8c7c3b92560405160405180910390a45050565b6000806126a183611840565b90508073ffffffffffffffffffffffffffffffffffffffff168473ffffffffffffffffffffffffffffffffffffffff1614806126e357506126e2818561210d565b5b8061272157508373ffffffffffffffffffffffffffffffffffffffff1661270984610cd6565b73ffffffffffffffffffffffffffffffffffffffff16145b91505092915050565b8273ffffffffffffffffffffffffffffffffffffffff1661274a82611840565b73ffffffffffffffffffffffffffffffffffffffff16146127a0576040517f08c379a000000000000000000000000000000000000000000000000000000000815260040161279790614f11565b60405180910390fd5b600073ffffffffffffffffffffffffffffffffffffffff168273ffffffffffffffffffffffffffffffffffffffff161415612810576040517f08c379a000000000000000000000000000000000000000000000000000000000815260040161280790614f71565b60405180910390fd5b61281d83838360016132fc565b8273ffffffffffffffffffffffffffffffffffffffff1661283d82611840565b73ffffffffffffffffffffffffffffffffffffffff1614612893576040517f08c379a000000000000000000000000000000000000000000000000000000000815260040161288a90614f11565b60405180910390fd5b6004600082815260200190815260200160002060006101000a81549073ffffffffffffffffffffffffffffffffffffffff02191690556001600360008573ffffffffffffffffffffffffffffffffffffffff1673ffffffffffffffffffffffffffffffffffffffff168152602001908152602001600020600082825403925050819055506001600360008473ffffffffffffffffffffffffffffffffffffffff1673ffffffffffffffffffffffffffffffffffffffff16815260200190815260200160002060008282540192505081905550816002600083815260200190815260200160002060006101000a81548173ffffffffffffffffffffffffffffffffffffffff021916908373ffffffffffffffffffffffffffffffffffffffff160217905550808273ffffffffffffffffffffffffffffffffffffffff168473ffffffffffffffffffffffffffffffffffffffff167fddf252ad1be2c89b69c2b068fc378daa952ba7f163c4a11628f55a4df523b3ef60405160405180910390a4612a1f838383600161345c565b505050565b6000612710905090565b6000612a3982611840565b9050612a498160008460016132fc565b612a5282611840565b90506004600083815260200190815260200160002060006101000a81549073ffffffffffffffffffffffffffffffffffffffff02191690556001600360008373ffffffffffffffffffffffffffffffffffffffff1673ffffffffffffffffffffffffffffffffffffffff168152602001908152602001600020600082825403925050819055506002600083815260200190815260200160002060006101000a81549073ffffffffffffffffffffffffffffffffffffffff021916905581600073ffffffffffffffffffffffffffffffffffffffff168273ffffffffffffffffffffffffffffffffffffffff167fddf252ad1be2c89b69c2b068fc378daa952ba7f163c4a11628f55a4df523b3ef60405160405180910390a4612b7881600084600161345c565b5050565b60006002600083815260200190815260200160002060009054906101000a900473ffffffffffffffffffffffffffffffffffffffff169050919050565b6000600c60009054906101000a900473ffffffffffffffffffffffffffffffffffffffff16905081600c60006101000a81548173ffffffffffffffffffffffffffffffffffffffff021916908373ffffffffffffffffffffffffffffffffffffffff1602179055508173ffffffffffffffffffffffffffffffffffffffff168173ffffffffffffffffffffffffffffffffffffffff167f8be0079c531659141344cd1fd0a4f28419497f9722a3daafe3b4186f6b6457e060405160405180910390a35050565b60008082612710612c909190615423565b905060008133444285604051602001612cac9493929190614cae565b6040516020818303038152906040528051906020012060001c612ccf91906155ff565b90506000925060006013826127108110612d12577f4e487b7100000000000000000000000000000000000000000000000000000000600052603260045260246000fd5b015414612d5d576013816127108110612d54577f4e487b7100000000000000000000000000000000000000000000000000000000600052603260045260246000fd5b01549250612d61565b8092505b60006013600184612d729190615423565b6127108110612daa577f4e487b7100000000000000000000000000000000000000000000000000000000600052603260045260246000fd5b01541415612e0457600182612dbf9190615423565b6013826127108110612dfa577f4e487b7100000000000000000000000000000000000000000000000000000000600052603260045260246000fd5b0181905550612e8e565b6013600183612e139190615423565b6127108110612e4b577f4e487b7100000000000000000000000000000000000000000000000000000000600052603260045260246000fd5b01546013826127108110612e88577f4e487b7100000000000000000000000000000000000000000000000000000000600052603260045260246000fd5b01819055505b600183612e9b9190615342565b92505050919050565b612ebe828260405180602001604052806000815250613462565b5050565b8173ffffffffffffffffffffffffffffffffffffffff168373ffffffffffffffffffffffffffffffffffffffff161415612f31576040517f08c379a0000000000000000000000000000000000000000000000000000000008152600401612f2890614f91565b60405180910390fd5b80600560008573ffffffffffffffffffffffffffffffffffffffff1673ffffffffffffffffffffffffffffffffffffffff16815260200190815260200160002060008473ffffffffffffffffffffffffffffffffffffffff1673ffffffffffffffffffffffffffffffffffffffff16815260200190815260200160002060006101000a81548160ff0219169083151502179055508173ffffffffffffffffffffffffffffffffffffffff168373ffffffffffffffffffffffffffffffffffffffff167f17307eab39ab6107e8899845ad3d59bd9653f200f220920489ca2b5937696c31836040516130229190614df4565b60405180910390a3505050565b61303a84848461272a565b613046848484846134bd565b613085576040517f08c379a000000000000000000000000000000000000000000000000000000000815260040161307c90614ed1565b60405180910390fd5b50505050565b60008073ffffffffffffffffffffffffffffffffffffffff166130ad83612b7c565b73ffffffffffffffffffffffffffffffffffffffff1614159050919050565b6060600f80546130db90615525565b80601f016020809104026020016040519081016040528092919081815260200182805461310790615525565b80156131545780601f1061312957610100808354040283529160200191613154565b820191906000526020600020905b81548152906001019060200180831161313757829003601f168201915b5050505050905090565b60606000600161316d84613654565b01905060008167ffffffffffffffff8111156131b2577f4e487b7100000000000000000000000000000000000000000000000000000000600052604160045260246000fd5b6040519080825280601f01601f1916602001820160405280156131e45781602001600182028036833780820191505090505b509050600082602001820190505b600115613277578080600190039150507f3031323334353637383961626364656600000000000000000000000000000000600a86061a8153600a8581613261577f4e487b7100000000000000000000000000000000000000000000000000000000600052601260045260246000fd5b049450600085141561327257613277565b6131f2565b819350505050919050565b60007f780e9d63000000000000000000000000000000000000000000000000000000007bffffffffffffffffffffffffffffffffffffffffffffffffffffffff1916827bffffffffffffffffffffffffffffffffffffffffffffffffffffffff191614806132f557506132f48261388b565b5b9050919050565b6133088484848461396d565b600181111561334c576040517f08c379a000000000000000000000000000000000000000000000000000000000815260040161334390615111565b60405180910390fd5b6000829050600073ffffffffffffffffffffffffffffffffffffffff168573ffffffffffffffffffffffffffffffffffffffff1614156133945761338f81613973565b6133d3565b8373ffffffffffffffffffffffffffffffffffffffff168573ffffffffffffffffffffffffffffffffffffffff16146133d2576133d185826139bc565b5b5b600073ffffffffffffffffffffffffffffffffffffffff168473ffffffffffffffffffffffffffffffffffffffff1614156134165761341181613b29565b613455565b8473ffffffffffffffffffffffffffffffffffffffff168473ffffffffffffffffffffffffffffffffffffffff1614613454576134538482613c6c565b5b5b5050505050565b50505050565b61346c8383613ceb565b61347960008484846134bd565b6134b8576040517f08c379a00000000000000000000000000000000000000000000000000000000081526004016134af90614ed1565b60405180910390fd5b505050565b60006134de8473ffffffffffffffffffffffffffffffffffffffff16613f09565b15613647578373ffffffffffffffffffffffffffffffffffffffff1663150b7a026135076125d4565b8786866040518563ffffffff1660e01b81526004016135299493929190614d5d565b602060405180830381600087803b15801561354357600080fd5b505af192505050801561357457506040513d601f19601f8201168201806040525081019061357191906145b8565b60015b6135f7573d80600081146135a4576040519150601f19603f3d011682016040523d82523d6000602084013e6135a9565b606091505b506000815114156135ef576040517f08c379a00000000000000000000000000000000000000000000000000000000081526004016135e690614ed1565b60405180910390fd5b805181602001fd5b63150b7a0260e01b7bffffffffffffffffffffffffffffffffffffffffffffffffffffffff1916817bffffffffffffffffffffffffffffffffffffffffffffffffffffffff19161491505061364c565b600190505b949350505050565b600080600090507a184f03e93ff9f4daa797ed6e38ed64bf6a1f01000000000000000083106136d8577a184f03e93ff9f4daa797ed6e38ed64bf6a1f01000000000000000083816136ce577f4e487b7100000000000000000000000000000000000000000000000000000000600052601260045260246000fd5b0492506040810190505b6d04ee2d6d415b85acef8100000000831061373b576d04ee2d6d415b85acef81000000008381613731577f4e487b7100000000000000000000000000000000000000000000000000000000600052601260045260246000fd5b0492506020810190505b662386f26fc10000831061379057662386f26fc100008381613786577f4e487b7100000000000000000000000000000000000000000000000000000000600052601260045260246000fd5b0492506010810190505b6305f5e10083106137df576305f5e10083816137d5577f4e487b7100000000000000000000000000000000000000000000000000000000600052601260045260246000fd5b0492506008810190505b612710831061382a576127108381613820577f4e487b7100000000000000000000000000000000000000000000000000000000600052601260045260246000fd5b0492506004810190505b606483106138735760648381613869577f4e487b7100000000000000000000000000000000000000000000000000000000600052601260045260246000fd5b0492506002810190505b600a8310613882576001810190505b80915050919050565b60007f80ac58cd000000000000000000000000000000000000000000000000000000007bffffffffffffffffffffffffffffffffffffffffffffffffffffffff1916827bffffffffffffffffffffffffffffffffffffffffffffffffffffffff1916148061395657507f5b5e139f000000000000000000000000000000000000000000000000000000007bffffffffffffffffffffffffffffffffffffffffffffffffffffffff1916827bffffffffffffffffffffffffffffffffffffffffffffffffffffffff1916145b80613966575061396582613f2c565b5b9050919050565b50505050565b6008805490506009600083815260200190815260200160002081905550600881908060018154018082558091505060019003906000526020600020016000909190919091505550565b600060016139c9846118c7565b6139d39190615423565b9050600060076000848152602001908152602001600020549050818114613ab8576000600660008673ffffffffffffffffffffffffffffffffffffffff1673ffffffffffffffffffffffffffffffffffffffff168152602001908152602001600020600084815260200190815260200160002054905080600660008773ffffffffffffffffffffffffffffffffffffffff1673ffffffffffffffffffffffffffffffffffffffff168152602001908152602001600020600084815260200190815260200160002081905550816007600083815260200190815260200160002081905550505b6007600084815260200190815260200160002060009055600660008573ffffffffffffffffffffffffffffffffffffffff1673ffffffffffffffffffffffffffffffffffffffff16815260200190815260200160002060008381526020019081526020016000206000905550505050565b60006001600880549050613b3d9190615423565b9050600060096000848152602001908152602001600020549050600060088381548110613b93577f4e487b7100000000000000000000000000000000000000000000000000000000600052603260045260246000fd5b906000526020600020015490508060088381548110613bdb577f4e487b7100000000000000000000000000000000000000000000000000000000600052603260045260246000fd5b906000526020600020018190555081600960008381526020019081526020016000208190555060096000858152602001908152602001600020600090556008805480613c50577f4e487b7100000000000000000000000000000000000000000000000000000000600052603160045260246000fd5b6001900381819060005260206000200160009055905550505050565b6000613c77836118c7565b905081600660008573ffffffffffffffffffffffffffffffffffffffff1673ffffffffffffffffffffffffffffffffffffffff168152602001908152602001600020600083815260200190815260200160002081905550806007600084815260200190815260200160002081905550505050565b600073ffffffffffffffffffffffffffffffffffffffff168273ffffffffffffffffffffffffffffffffffffffff161415613d5b576040517f08c379a0000000000000000000000000000000000000000000000000000000008152600401613d5290614ff1565b60405180910390fd5b613d648161308b565b15613da4576040517f08c379a0000000000000000000000000000000000000000000000000000000008152600401613d9b90614f31565b60405180910390fd5b613db26000838360016132fc565b613dbb8161308b565b15613dfb576040517f08c379a0000000000000000000000000000000000000000000000000000000008152600401613df290614f31565b60405180910390fd5b6001600360008473ffffffffffffffffffffffffffffffffffffffff1673ffffffffffffffffffffffffffffffffffffffff16815260200190815260200160002060008282540192505081905550816002600083815260200190815260200160002060006101000a81548173ffffffffffffffffffffffffffffffffffffffff021916908373ffffffffffffffffffffffffffffffffffffffff160217905550808273ffffffffffffffffffffffffffffffffffffffff16600073ffffffffffffffffffffffffffffffffffffffff167fddf252ad1be2c89b69c2b068fc378daa952ba7f163c4a11628f55a4df523b3ef60405160405180910390a4613f0560008383600161345c565b5050565b6000808273ffffffffffffffffffffffffffffffffffffffff163b119050919050565b60007f01ffc9a7000000000000000000000000000000000000000000000000000000007bffffffffffffffffffffffffffffffffffffffffffffffffffffffff1916827bffffffffffffffffffffffffffffffffffffffffffffffffffffffff1916149050919050565b828054613fa290615525565b90600052602060002090601f016020900481019282613fc4576000855561400b565b82601f10613fdd57805160ff191683800117855561400b565b8280016001018555821561400b579182015b8281111561400a578251825591602001919060010190613fef565b5b509050614018919061403f565b5090565b604051806060016040528060001515815260200160008152602001600081525090565b5b80821115614058576000816000905550600101614040565b5090565b600061406f61406a846151ec565b6151c7565b9050808382526020820190508285602086028201111561408e57600080fd5b60005b858110156140be57816140a488826141b0565b845260208401935060208301925050600181019050614091565b5050509392505050565b60006140db6140d684615218565b6151c7565b905080838252602082019050828560208602820111156140fa57600080fd5b60005b8581101561412a578161411088826142ac565b8452602084019350602083019250506001810190506140fd565b5050509392505050565b600061414761414284615244565b6151c7565b90508281526020810184848401111561415f57600080fd5b61416a8482856154e3565b509392505050565b600061418561418084615275565b6151c7565b90508281526020810184848401111561419d57600080fd5b6141a88482856154e3565b509392505050565b6000813590506141bf81615d4e565b92915050565b600082601f8301126141d657600080fd5b81356141e684826020860161405c565b91505092915050565b600082601f83011261420057600080fd5b81356142108482602086016140c8565b91505092915050565b60008135905061422881615d65565b92915050565b60008135905061423d81615d7c565b92915050565b60008151905061425281615d7c565b92915050565b600082601f83011261426957600080fd5b8135614279848260208601614134565b91505092915050565b600082601f83011261429357600080fd5b81356142a3848260208601614172565b91505092915050565b6000813590506142bb81615d93565b92915050565b6000813590506142d081615daa565b92915050565b6000602082840312156142e857600080fd5b60006142f6848285016141b0565b91505092915050565b6000806040838503121561431257600080fd5b6000614320858286016141b0565b9250506020614331858286016141b0565b9150509250929050565b60008060006060848603121561435057600080fd5b600061435e868287016141b0565b935050602061436f868287016141b0565b9250506040614380868287016142ac565b9150509250925092565b600080600080608085870312156143a057600080fd5b60006143ae878288016141b0565b94505060206143bf878288016141b0565b93505060406143d0878288016142ac565b925050606085013567ffffffffffffffff8111156143ed57600080fd5b6143f987828801614258565b91505092959194509250565b6000806040838503121561441857600080fd5b6000614426858286016141b0565b925050602061443785828601614219565b9150509250929050565b6000806040838503121561445457600080fd5b6000614462858286016141b0565b9250506020614473858286016142ac565b9150509250929050565b6000806040838503121561449057600080fd5b600061449e858286016141b0565b92505060206144af858286016142c1565b9150509250929050565b6000602082840312156144cb57600080fd5b600082013567ffffffffffffffff8111156144e557600080fd5b6144f1848285016141c5565b91505092915050565b6000806040838503121561450d57600080fd5b600083013567ffffffffffffffff81111561452757600080fd5b614533858286016141c5565b925050602083013567ffffffffffffffff81111561455057600080fd5b61455c858286016141ef565b9150509250929050565b60006020828403121561457857600080fd5b600061458684828501614219565b91505092915050565b6000602082840312156145a157600080fd5b60006145af8482850161422e565b91505092915050565b6000602082840312156145ca57600080fd5b60006145d884828501614243565b91505092915050565b6000602082840312156145f357600080fd5b600082013567ffffffffffffffff81111561460d57600080fd5b61461984828501614282565b91505092915050565b60006020828403121561463457600080fd5b6000614642848285016142ac565b91505092915050565b6000806040838503121561465e57600080fd5b600061466c858286016142ac565b925050602061467d858286016142ac565b9150509250929050565b60006146938383614c79565b60208301905092915050565b6146a881615457565b82525050565b6146bf6146ba82615457565b6155d1565b82525050565b60006146d0826152cb565b6146da81856152f9565b93506146e5836152a6565b8060005b838110156147165781516146fd8882614687565b9750614708836152ec565b9250506001810190506146e9565b5085935050505092915050565b61472c81615469565b82525050565b61473b81615469565b82525050565b600061474c826152d6565b614756818561530a565b93506147668185602086016154f2565b61476f816156ec565b840191505092915050565b6000614785826152e1565b61478f8185615326565b935061479f8185602086016154f2565b6147a8816156ec565b840191505092915050565b60006147be826152e1565b6147c88185615337565b93506147d88185602086016154f2565b80840191505092915050565b600081546147f181615525565b6147fb8186615337565b9450600182166000811461481657600181146148275761485a565b60ff1983168652818601935061485a565b614830856152b6565b60005b8381101561485257815481890152600182019150602081019050614833565b838801955050505b50505092915050565b6000614870601383615326565b915061487b8261570a565b602082019050919050565b6000614893601483615326565b915061489e82615733565b602082019050919050565b60006148b6601483615326565b91506148c18261575c565b602082019050919050565b60006148d9602d83615326565b91506148e482615785565b604082019050919050565b60006148fc602b83615326565b9150614907826157d4565b604082019050919050565b600061491f603283615326565b915061492a82615823565b604082019050919050565b6000614942602683615326565b915061494d82615872565b604082019050919050565b6000614965602583615326565b9150614970826158c1565b604082019050919050565b6000614988601c83615326565b915061499382615910565b602082019050919050565b60006149ab601283615326565b91506149b682615939565b602082019050919050565b60006149ce602483615326565b91506149d982615962565b604082019050919050565b60006149f1601983615326565b91506149fc826159b1565b602082019050919050565b6000614a14601083615326565b9150614a1f826159da565b602082019050919050565b6000614a37602983615326565b9150614a4282615a03565b604082019050919050565b6000614a5a602083615326565b9150614a6582615a52565b602082019050919050565b6000614a7d602083615326565b9150614a8882615a7b565b602082019050919050565b6000614aa0602f83615326565b9150614aab82615aa4565b604082019050919050565b6000614ac3601883615326565b9150614ace82615af3565b602082019050919050565b6000614ae6602183615326565b9150614af182615b1c565b604082019050919050565b6000614b09601583615326565b9150614b1482615b6b565b602082019050919050565b6000614b2c60008361531b565b9150614b3782615b94565b600082019050919050565b6000614b4f601283615326565b9150614b5a82615b97565b602082019050919050565b6000614b72603d83615326565b9150614b7d82615bc0565b604082019050919050565b6000614b95602c83615326565b9150614ba082615c0f565b604082019050919050565b6000614bb8603583615326565b9150614bc382615c5e565b604082019050919050565b6000614bdb602a83615326565b9150614be682615cad565b604082019050919050565b6000614bfe600683615326565b9150614c0982615cfc565b602082019050919050565b6000614c21601983615326565b9150614c2c82615d25565b602082019050919050565b606082016000820151614c4d6000850182614723565b506020820151614c606020850182614c79565b506040820151614c736040850182614c79565b50505050565b614c82816154c1565b82525050565b614c91816154c1565b82525050565b614ca8614ca3826154c1565b6155f5565b82525050565b6000614cba82876146ae565b601482019150614cca8286614c97565b602082019150614cda8285614c97565b602082019150614cea8284614c97565b60208201915081905095945050505050565b6000614d0882866147b3565b9150614d1482856147b3565b9150614d2082846147e4565b9150819050949350505050565b6000614d3882614b1f565b9150819050919050565b6000602082019050614d57600083018461469f565b92915050565b6000608082019050614d72600083018761469f565b614d7f602083018661469f565b614d8c6040830185614c88565b8181036060830152614d9e8184614741565b905095945050505050565b6000604082019050614dbe600083018561469f565b614dcb6020830184614c88565b9392505050565b60006020820190508181036000830152614dec81846146c5565b905092915050565b6000602082019050614e096000830184614732565b92915050565b60006020820190508181036000830152614e29818461477a565b905092915050565b60006020820190508181036000830152614e4a81614863565b9050919050565b60006020820190508181036000830152614e6a81614886565b9050919050565b60006020820190508181036000830152614e8a816148a9565b9050919050565b60006020820190508181036000830152614eaa816148cc565b9050919050565b60006020820190508181036000830152614eca816148ef565b9050919050565b60006020820190508181036000830152614eea81614912565b9050919050565b60006020820190508181036000830152614f0a81614935565b9050919050565b60006020820190508181036000830152614f2a81614958565b9050919050565b60006020820190508181036000830152614f4a8161497b565b9050919050565b60006020820190508181036000830152614f6a8161499e565b9050919050565b60006020820190508181036000830152614f8a816149c1565b9050919050565b60006020820190508181036000830152614faa816149e4565b9050919050565b60006020820190508181036000830152614fca81614a07565b9050919050565b60006020820190508181036000830152614fea81614a2a565b9050919050565b6000602082019050818103600083015261500a81614a4d565b9050919050565b6000602082019050818103600083015261502a81614a70565b9050919050565b6000602082019050818103600083015261504a81614a93565b9050919050565b6000602082019050818103600083015261506a81614ab6565b9050919050565b6000602082019050818103600083015261508a81614ad9565b9050919050565b600060208201905081810360008301526150aa81614afc565b9050919050565b600060208201905081810360008301526150ca81614b42565b9050919050565b600060208201905081810360008301526150ea81614b65565b9050919050565b6000602082019050818103600083015261510a81614b88565b9050919050565b6000602082019050818103600083015261512a81614bab565b9050919050565b6000602082019050818103600083015261514a81614bce565b9050919050565b6000602082019050818103600083015261516a81614bf1565b9050919050565b6000602082019050818103600083015261518a81614c14565b9050919050565b60006060820190506151a66000830184614c37565b92915050565b60006020820190506151c16000830184614c88565b92915050565b60006151d16151e2565b90506151dd8282615557565b919050565b6000604051905090565b600067ffffffffffffffff821115615207576152066156bd565b5b602082029050602081019050919050565b600067ffffffffffffffff821115615233576152326156bd565b5b602082029050602081019050919050565b600067ffffffffffffffff82111561525f5761525e6156bd565b5b615268826156ec565b9050602081019050919050565b600067ffffffffffffffff8211156152905761528f6156bd565b5b615299826156ec565b9050602081019050919050565b6000819050602082019050919050565b60008190508160005260206000209050919050565b600081519050919050565b600081519050919050565b600081519050919050565b6000602082019050919050565b600082825260208201905092915050565b600082825260208201905092915050565b600081905092915050565b600082825260208201905092915050565b600081905092915050565b600061534d826154c1565b9150615358836154c1565b9250827fffffffffffffffffffffffffffffffffffffffffffffffffffffffffffffffff0382111561538d5761538c615630565b5b828201905092915050565b60006153a3826154c1565b91506153ae836154c1565b9250826153be576153bd61565f565b5b828204905092915050565b60006153d4826154c1565b91506153df836154c1565b9250817fffffffffffffffffffffffffffffffffffffffffffffffffffffffffffffffff048311821515161561541857615417615630565b5b828202905092915050565b600061542e826154c1565b9150615439836154c1565b92508282101561544c5761544b615630565b5b828203905092915050565b6000615462826154a1565b9050919050565b60008115159050919050565b60007fffffffff0000000000000000000000000000000000000000000000000000000082169050919050565b600073ffffffffffffffffffffffffffffffffffffffff82169050919050565b6000819050919050565b60006bffffffffffffffffffffffff82169050919050565b82818337600083830152505050565b60005b838110156155105780820151818401526020810190506154f5565b8381111561551f576000848401525b50505050565b6000600282049050600182168061553d57607f821691505b602082108114156155515761555061568e565b5b50919050565b615560826156ec565b810181811067ffffffffffffffff8211171561557f5761557e6156bd565b5b80604052505050565b6000615593826154c1565b91507fffffffffffffffffffffffffffffffffffffffffffffffffffffffffffffffff8214156155c6576155c5615630565b5b600182019050919050565b60006155dc826155e3565b9050919050565b60006155ee826156fd565b9050919050565b6000819050919050565b600061560a826154c1565b9150615615836154c1565b9250826156255761562461565f565b5b828206905092915050565b7f4e487b7100000000000000000000000000000000000000000000000000000000600052601160045260246000fd5b7f4e487b7100000000000000000000000000000000000000000000000000000000600052601260045260246000fd5b7f4e487b7100000000000000000000000000000000000000000000000000000000600052602260045260246000fd5b7f4e487b7100000000000000000000000000000000000000000000000000000000600052604160045260246000fd5b6000601f19601f8301169050919050565b60008160601b9050919050565b7f4d617820737570706c7920657863656564656400000000000000000000000000600082015250565b7f616d6f756e742063616e2774206265207a65726f000000000000000000000000600082015250565b7f4d696e74206973206e6f74206c69766520796574000000000000000000000000600082015250565b7f4552433732313a2063616c6c6572206973206e6f7420746f6b656e206f776e6560008201527f72206f7220617070726f76656400000000000000000000000000000000000000602082015250565b7f455243373231456e756d657261626c653a206f776e657220696e646578206f7560008201527f74206f6620626f756e6473000000000000000000000000000000000000000000602082015250565b7f4552433732313a207472616e7366657220746f206e6f6e20455243373231526560008201527f63656976657220696d706c656d656e7465720000000000000000000000000000602082015250565b7f4f776e61626c653a206e6577206f776e657220697320746865207a65726f206160008201527f6464726573730000000000000000000000000000000000000000000000000000602082015250565b7f4552433732313a207472616e736665722066726f6d20696e636f72726563742060008201527f6f776e6572000000000000000000000000000000000000000000000000000000602082015250565b7f4552433732313a20746f6b656e20616c7265616479206d696e74656400000000600082015250565b7f53656e64696e672063726f206661696c65640000000000000000000000000000600082015250565b7f4552433732313a207472616e7366657220746f20746865207a65726f2061646460008201527f7265737300000000000000000000000000000000000000000000000000000000602082015250565b7f4552433732313a20617070726f766520746f2063616c6c657200000000000000600082015250565b7f496e7075742044617461206572726f7200000000000000000000000000000000600082015250565b7f4552433732313a2061646472657373207a65726f206973206e6f74206120766160008201527f6c6964206f776e65720000000000000000000000000000000000000000000000602082015250565b7f4552433732313a206d696e7420746f20746865207a65726f2061646472657373600082015250565b7f4f776e61626c653a2063616c6c6572206973206e6f7420746865206f776e6572600082015250565b7f4552433732314d657461646174613a2055524920717565727920666f72206e6f60008201527f6e6578697374656e7420746f6b656e0000000000000000000000000000000000602082015250565b7f4552433732313a20696e76616c696420746f6b656e2049440000000000000000600082015250565b7f4552433732313a20617070726f76616c20746f2063757272656e74206f776e6560008201527f7200000000000000000000000000000000000000000000000000000000000000602082015250565b7f4e6f7420746865206275726e20636f6e74726163740000000000000000000000600082015250565b50565b7f696e73756666696369656e742066756e64730000000000000000000000000000600082015250565b7f4552433732313a20617070726f76652063616c6c6572206973206e6f7420746f60008201527f6b656e206f776e6572206f7220617070726f76656420666f7220616c6c000000602082015250565b7f455243373231456e756d657261626c653a20676c6f62616c20696e646578206f60008201527f7574206f6620626f756e64730000000000000000000000000000000000000000602082015250565b7f455243373231456e756d657261626c653a20636f6e736563757469766520747260008201527f616e7366657273206e6f7420737570706f727465640000000000000000000000602082015250565b7f455243323938313a20726f79616c7479206665652077696c6c2065786365656460008201527f2073616c65507269636500000000000000000000000000000000000000000000602082015250565b7f7061757365640000000000000000000000000000000000000000000000000000600082015250565b7f455243323938313a20696e76616c696420726563656976657200000000000000600082015250565b615d5781615457565b8114615d6257600080fd5b50565b615d6e81615469565b8114615d7957600080fd5b50565b615d8581615475565b8114615d9057600080fd5b50565b615d9c816154c1565b8114615da757600080fd5b50565b615db3816154cb565b8114615dbe57600080fd5b5056fea2646970667358221220622a07383fcbe6fa998e1a1b1a4dd711d6adc2506a9bd1c6ebebe9c58007050264736f6c63430008040033",
  "linkReferences": {},
  "deployedLinkReferences": {}
}